{
  "_format": "hh3-artifact-1",
  "contractName": "CrowdFund",
  "sourceName": "contracts/CrowdFund.sol",
  "abi": [
    {
      "inputs": [
        {
          "internalType": "uint256",
          "name": "_goal",
          "type": "uint256"
        },
        {
          "internalType": "uint256",
          "name": "_durationMinutes",
          "type": "uint256"
        }
      ],
      "stateMutability": "nonpayable",
      "type": "constructor"
    },
    {
      "anonymous": false,
      "inputs": [
        {
          "indexed": true,
          "internalType": "address",
          "name": "donor",
          "type": "address"
        },
        {
          "indexed": false,
          "internalType": "uint256",
          "name": "amount",
          "type": "uint256"
        }
      ],
      "name": "DonationReceived",
      "type": "event"
    },
    {
      "anonymous": false,
      "inputs": [
        {
          "indexed": false,
          "internalType": "address",
          "name": "owner",
          "type": "address"
        },
        {
          "indexed": false,
          "internalType": "uint256",
          "name": "amount",
          "type": "uint256"
        }
      ],
      "name": "FundsWithdrawn",
      "type": "event"
    },
    {
      "anonymous": false,
      "inputs": [
        {
          "indexed": false,
          "internalType": "uint256",
          "name": "totalAmount",
          "type": "uint256"
        }
      ],
      "name": "GoalReached",
      "type": "event"
    },
    {
      "anonymous": false,
      "inputs": [
        {
          "indexed": false,
          "internalType": "address",
          "name": "donor",
          "type": "address"
        },
        {
          "indexed": false,
          "internalType": "uint256",
          "name": "amount",
          "type": "uint256"
        }
      ],
      "name": "RefundIssued",
      "type": "event"
    },
    {
      "inputs": [
        {
          "internalType": "address",
          "name": "",
          "type": "address"
        }
      ],
      "name": "contributions",
      "outputs": [
        {
          "internalType": "uint256",
          "name": "",
          "type": "uint256"
        }
      ],
      "stateMutability": "view",
      "type": "function"
    },
    {
      "inputs": [],
      "name": "deadline",
      "outputs": [
        {
          "internalType": "uint256",
          "name": "",
          "type": "uint256"
        }
      ],
      "stateMutability": "view",
      "type": "function"
    },
    {
      "inputs": [],
      "name": "donate",
      "outputs": [],
      "stateMutability": "payable",
      "type": "function"
    },
    {
      "inputs": [
        {
          "internalType": "uint256",
          "name": "",
          "type": "uint256"
        }
      ],
      "name": "donors",
      "outputs": [
        {
          "internalType": "address",
          "name": "donor",
          "type": "address"
        },
        {
          "internalType": "uint256",
          "name": "amount",
          "type": "uint256"
        }
      ],
      "stateMutability": "view",
      "type": "function"
    },
    {
      "inputs": [],
      "name": "fundsWithdrawn",
      "outputs": [
        {
          "internalType": "bool",
          "name": "",
          "type": "bool"
        }
      ],
      "stateMutability": "view",
      "type": "function"
    },
    {
      "inputs": [],
      "name": "getBalance",
      "outputs": [
        {
          "internalType": "uint256",
          "name": "",
          "type": "uint256"
        }
      ],
      "stateMutability": "view",
      "type": "function"
    },
    {
      "inputs": [],
      "name": "getDonors",
      "outputs": [
        {
          "components": [
            {
              "internalType": "address",
              "name": "donor",
              "type": "address"
            },
            {
              "internalType": "uint256",
              "name": "amount",
              "type": "uint256"
            }
          ],
          "internalType": "struct CrowdFund.Donor[]",
          "name": "",
          "type": "tuple[]"
        }
      ],
      "stateMutability": "view",
      "type": "function"
    },
    {
      "inputs": [],
      "name": "getTimeLeft",
      "outputs": [
        {
          "internalType": "uint256",
          "name": "",
          "type": "uint256"
        }
      ],
      "stateMutability": "view",
      "type": "function"
    },
    {
      "inputs": [],
      "name": "goal",
      "outputs": [
        {
          "internalType": "uint256",
          "name": "",
          "type": "uint256"
        }
      ],
      "stateMutability": "view",
      "type": "function"
    },
    {
      "inputs": [],
      "name": "goalReached",
      "outputs": [
        {
          "internalType": "bool",
          "name": "",
          "type": "bool"
        }
      ],
      "stateMutability": "view",
      "type": "function"
    },
    {
      "inputs": [],
      "name": "owner",
      "outputs": [
        {
          "internalType": "address",
          "name": "",
          "type": "address"
        }
      ],
      "stateMutability": "view",
      "type": "function"
    },
    {
      "inputs": [],
      "name": "refund",
      "outputs": [],
      "stateMutability": "nonpayable",
      "type": "function"
    },
    {
      "inputs": [],
      "name": "totalRaised",
      "outputs": [
        {
          "internalType": "uint256",
          "name": "",
          "type": "uint256"
        }
      ],
      "stateMutability": "view",
      "type": "function"
    },
    {
      "inputs": [],
      "name": "withdrawFunds",
      "outputs": [],
      "stateMutability": "nonpayable",
      "type": "function"
    }
  ],
  "bytecode": "0x6080604052348015600e575f5ffd5b50604051610a2b380380610a2b833981016040819052602b91606a565b5f80546001600160a01b03191633179055604c82670de0b6b3a7640000609f565b600155605881603c609f565b6060904260b9565b6002555060c99050565b5f5f60408385031215607a575f5ffd5b505080516020909101519092909150565b634e487b7160e01b5f52601160045260245ffd5b808202811582820484141760b35760b3608b565b92915050565b8082018082111560b35760b3608b565b610955806100d65f395ff3fe6080604052600436106100d9575f3560e01c80637d3d65221161007c578063ac307fcf11610057578063ac307fcf1461023b578063c5c4744c14610259578063c7e284b81461026e578063ed88c68e14610282575f5ffd5b80637d3d6522146101bb5780638da5cb5b146101e457806396f300d41461021a575f5ffd5b806340193883116100b7578063401938831461012957806342e94c901461013e5780634abfa16314610169578063590e1ae3146101a7575f5ffd5b806312065fe0146100dd57806324600fc3146100fe57806329dcb0cf14610114575b5f5ffd5b3480156100e8575f5ffd5b50475b6040519081526020015b60405180910390f35b348015610109575f5ffd5b5061011261028a565b005b34801561011f575f5ffd5b506100eb60025481565b348015610134575f5ffd5b506100eb60015481565b348015610149575f5ffd5b506100eb610158366004610844565b60056020525f908152604090205481565b348015610174575f5ffd5b50610188610183366004610871565b61043d565b604080516001600160a01b0390931683526020830191909152016100f5565b3480156101b2575f5ffd5b50610112610473565b3480156101c6575f5ffd5b506004546101d49060ff1681565b60405190151581526020016100f5565b3480156101ef575f5ffd5b505f54610202906001600160a01b031681565b6040516001600160a01b0390911681526020016100f5565b348015610225575f5ffd5b5061022e6105b9565b6040516100f59190610888565b348015610246575f5ffd5b506004546101d490610100900460ff1681565b348015610264575f5ffd5b506100eb60035481565b348015610279575f5ffd5b506100eb61062c565b61011261064e565b6002544210156102d25760405162461bcd60e51b815260206004820152600e60248201526d10d85b5c185a59db88195b99195960921b60448201526064015b60405180910390fd5b5f546001600160a01b0316331461031b5760405162461bcd60e51b815260206004820152600d60248201526c2737ba103a34329037bbb732b960991b60448201526064016102c9565b60045460ff166103605760405162461bcd60e51b815260206004820152601060248201526f11dbd85b081b9bdd081c995858da195960821b60448201526064016102c9565b600454610100900460ff16156103ac5760405162461bcd60e51b815260206004820152601160248201527020b63932b0b23c903bb4ba34323930bbb760791b60448201526064016102c9565b6004805461ff0019166101001790555f805460405147926001600160a01b039092169183156108fc02918491818181858888f193505050501580156103f3573d5f5f3e3d5ffd5b505f54604080516001600160a01b039092168252602082018390527feaff4b37086828766ad3268786972c0cd24259d4c87a80f9d3963a3c3d999b0d91015b60405180910390a150565b6006818154811061044c575f80fd5b5f918252602090912060029091020180546001909101546001600160a01b03909116915082565b6002544210156104b65760405162461bcd60e51b815260206004820152600e60248201526d10d85b5c185a59db88195b99195960921b60448201526064016102c9565b60045460ff16156104fc5760405162461bcd60e51b815260206004820152601060248201526f11dbd85b081dd85cc81c995858da195960821b60448201526064016102c9565b335f908152600560205260409020548061054a5760405162461bcd60e51b815260206004820152600f60248201526e27379031b7b73a3934b13aba34b7b760891b60448201526064016102c9565b335f818152600560205260408082208290555183156108fc0291849190818181858888f19350505050158015610582573d5f5f3e3d5ffd5b5060408051338152602081018390527fa171b6942063c6f2800ce40a780edce37baa2b618571b11eedd1e69e626e7d769101610432565b60606006805480602002602001604051908101604052809291908181526020015f905b82821015610623575f848152602090819020604080518082019091526002850290910180546001600160a01b031682526001908101548284015290835290920191016105dc565b50505050905090565b5f600254421061063b57505f90565b4260025461064991906108f3565b905090565b60025442106106975760405162461bcd60e51b815260206004820152601560248201527443616d706169676e207374696c6c2061637469766560581b60448201526064016102c9565b5f34116106d65760405162461bcd60e51b815260206004820152600d60248201526c139bc8195d1a195c881cd95b9d609a1b60448201526064016102c9565b335f90815260056020526040812080543492906106f490849061090c565b9091555050604080518082019091523381523460208201818152600680546001810182555f91825293517ff652222313e28459528d920b65115c16c04f3efc82aaedc97be59f3f377c0d3f600290950294850180546001600160a01b0319166001600160a01b0390921691909117905590517ff652222313e28459528d920b65115c16c04f3efc82aaedc97be59f3f377c0d409093019290925560038054919290916107a190849061090c565b909155505060405134815233907f264f630d9efa0d07053a31163641d9fcc0adafc9d9e76f1c37c2ce3a558d2c529060200160405180910390a2600154600354101580156107f2575060045460ff16155b15610842576004805460ff191660011790556003546040517ffbfd8ab7c24300fa9888cd721c8565a7da56759384781283684dcf7c7c4a846b916108399190815260200190565b60405180910390a15b565b5f60208284031215610854575f5ffd5b81356001600160a01b038116811461086a575f5ffd5b9392505050565b5f60208284031215610881575f5ffd5b5035919050565b602080825282518282018190525f918401906040840190835b818110156108d457835180516001600160a01b0316845260209081015181850152909301926040909201916001016108a1565b509095945050505050565b634e487b7160e01b5f52601160045260245ffd5b81810381811115610906576109066108df565b92915050565b80820180821115610906576109066108df56fea26469706673582212207e839dc268e94ff9dd1dc74eddc3bafdcb095eb06a3140fa1a6ec0fbd9c7ea0e64736f6c634300081c0033",
  "linkReferences": {},
  "deployedLinkReferences": {},
  "immutableReferences": {},
  "inputSourceName": "project/contracts/CrowdFund.sol",
  "buildInfoId": "solc-0_8_28-96a4e436bf33a1a6f1ea144c8f6ec9555d004c98"
}