{
  "_format": "hh3-artifact-1",
  "contractName": "MultiCrowdFund",
  "sourceName": "contracts/MultiCrowdFund.sol",
  "abi": [
    {
      "anonymous": false,
      "inputs": [
        {
          "indexed": true,
          "internalType": "uint256",
          "name": "id",
          "type": "uint256"
        },
        {
          "indexed": true,
          "internalType": "address",
          "name": "owner",
          "type": "address"
        },
        {
          "indexed": false,
          "internalType": "string",
          "name": "title",
          "type": "string"
        },
        {
          "indexed": false,
          "internalType": "uint256",
          "name": "goal",
          "type": "uint256"
        },
        {
          "indexed": false,
          "internalType": "uint256",
          "name": "deadline",
          "type": "uint256"
        }
      ],
      "name": "CampaignCreated",
      "type": "event"
    },
    {
      "anonymous": false,
      "inputs": [
        {
          "indexed": true,
          "internalType": "uint256",
          "name": "id",
          "type": "uint256"
        },
        {
          "indexed": true,
          "internalType": "address",
          "name": "from",
          "type": "address"
        },
        {
          "indexed": false,
          "internalType": "uint256",
          "name": "amount",
          "type": "uint256"
        },
        {
          "indexed": false,
          "internalType": "uint256",
          "name": "newTotal",
          "type": "uint256"
        },
        {
          "indexed": false,
          "internalType": "uint256",
          "name": "liveBalance",
          "type": "uint256"
        }
      ],
      "name": "Donated",
      "type": "event"
    },
    {
      "anonymous": false,
      "inputs": [
        {
          "indexed": true,
          "internalType": "uint256",
          "name": "id",
          "type": "uint256"
        },
        {
          "indexed": true,
          "internalType": "address",
          "name": "owner",
          "type": "address"
        },
        {
          "indexed": false,
          "internalType": "uint256",
          "name": "amount",
          "type": "uint256"
        }
      ],
      "name": "FundsWithdrawn",
      "type": "event"
    },
    {
      "anonymous": false,
      "inputs": [
        {
          "indexed": true,
          "internalType": "uint256",
          "name": "id",
          "type": "uint256"
        },
        {
          "indexed": false,
          "internalType": "uint256",
          "name": "amount",
          "type": "uint256"
        }
      ],
      "name": "GoalReached",
      "type": "event"
    },
    {
      "anonymous": false,
      "inputs": [
        {
          "indexed": true,
          "internalType": "uint256",
          "name": "id",
          "type": "uint256"
        },
        {
          "indexed": true,
          "internalType": "address",
          "name": "to",
          "type": "address"
        },
        {
          "indexed": false,
          "internalType": "uint256",
          "name": "amount",
          "type": "uint256"
        }
      ],
      "name": "Refunded",
      "type": "event"
    },
    {
      "stateMutability": "payable",
      "type": "fallback"
    },
    {
      "inputs": [
        {
          "internalType": "uint256",
          "name": "",
          "type": "uint256"
        }
      ],
      "name": "campaigns",
      "outputs": [
        {
          "internalType": "address",
          "name": "owner",
          "type": "address"
        },
        {
          "internalType": "string",
          "name": "title",
          "type": "string"
        },
        {
          "internalType": "uint256",
          "name": "goal",
          "type": "uint256"
        },
        {
          "internalType": "uint256",
          "name": "deadline",
          "type": "uint256"
        },
        {
          "internalType": "uint256",
          "name": "totalRaised",
          "type": "uint256"
        },
        {
          "internalType": "uint256",
          "name": "liveBalance",
          "type": "uint256"
        },
        {
          "internalType": "bool",
          "name": "goalReached",
          "type": "bool"
        },
        {
          "internalType": "bool",
          "name": "fundsWithdrawn",
          "type": "bool"
        }
      ],
      "stateMutability": "view",
      "type": "function"
    },
    {
      "inputs": [
        {
          "internalType": "uint256",
          "name": "",
          "type": "uint256"
        },
        {
          "internalType": "address",
          "name": "",
          "type": "address"
        }
      ],
      "name": "contributions",
      "outputs": [
        {
          "internalType": "uint256",
          "name": "",
          "type": "uint256"
        }
      ],
      "stateMutability": "view",
      "type": "function"
    },
    {
      "inputs": [
        {
          "internalType": "string",
          "name": "_title",
          "type": "string"
        },
        {
          "internalType": "uint256",
          "name": "_goal",
          "type": "uint256"
        },
        {
          "internalType": "uint256",
          "name": "_durationMinutes",
          "type": "uint256"
        }
      ],
      "name": "createCampaign",
      "outputs": [
        {
          "internalType": "uint256",
          "name": "id",
          "type": "uint256"
        }
      ],
      "stateMutability": "nonpayable",
      "type": "function"
    },
    {
      "inputs": [
        {
          "internalType": "uint256",
          "name": "id",
          "type": "uint256"
        }
      ],
      "name": "donateTo",
      "outputs": [],
      "stateMutability": "payable",
      "type": "function"
    },
    {
      "inputs": [
        {
          "internalType": "uint256",
          "name": "id",
          "type": "uint256"
        }
      ],
      "name": "getCampaignBalance",
      "outputs": [
        {
          "internalType": "uint256",
          "name": "",
          "type": "uint256"
        }
      ],
      "stateMutability": "view",
      "type": "function"
    },
    {
      "inputs": [
        {
          "internalType": "uint256",
          "name": "id",
          "type": "uint256"
        }
      ],
      "name": "getTimeLeft",
      "outputs": [
        {
          "internalType": "uint256",
          "name": "",
          "type": "uint256"
        }
      ],
      "stateMutability": "view",
      "type": "function"
    },
    {
      "inputs": [],
      "name": "nextCampaignId",
      "outputs": [
        {
          "internalType": "uint256",
          "name": "",
          "type": "uint256"
        }
      ],
      "stateMutability": "view",
      "type": "function"
    },
    {
      "inputs": [
        {
          "internalType": "uint256",
          "name": "id",
          "type": "uint256"
        }
      ],
      "name": "refund",
      "outputs": [],
      "stateMutability": "nonpayable",
      "type": "function"
    },
    {
      "inputs": [
        {
          "internalType": "uint256",
          "name": "id",
          "type": "uint256"
        }
      ],
      "name": "withdrawFunds",
      "outputs": [],
      "stateMutability": "nonpayable",
      "type": "function"
    },
    {
      "stateMutability": "payable",
      "type": "receive"
    }
  ],
  "bytecode": "0x6080604052348015600e575f5ffd5b506111198061001c5f395ff3fe608060405260043610610089575f3560e01c80633d891f59116100585780633d891f59146101aa5780637903a756146101e0578063d55361d1146101f5578063e8c5876314610208578063eb044b9714610227576100ca565b8063141961bc14610101578063155dd5ee1461013d578063278ecde11461015e5780633020580b1461017d576100ca565b366100ca5760405162461bcd60e51b815260206004820152600c60248201526b55736520646f6e617465546f60a01b60448201526064015b60405180910390fd5b60405162461bcd60e51b815260206004820152600c60248201526b55736520646f6e617465546f60a01b60448201526064016100c1565b34801561010c575f5ffd5b5061012061011b366004610d46565b610246565b604051610134989796959493929190610d8b565b60405180910390f35b348015610148575f5ffd5b5061015c610157366004610d46565b61031d565b005b348015610169575f5ffd5b5061015c610178366004610d46565b61061a565b348015610188575f5ffd5b5061019c610197366004610df9565b61088d565b604051908152602001610134565b3480156101b5575f5ffd5b5061019c6101c4366004610eb9565b600160209081525f928352604080842090915290825290205481565b3480156101eb575f5ffd5b5061019c60025481565b61015c610203366004610d46565b610a92565b348015610213575f5ffd5b5061019c610222366004610d46565b610c8b565b348015610232575f5ffd5b5061019c610241366004610d46565b610cfb565b5f60208190529081526040902080546001820180546001600160a01b03909216929161027190610ef2565b80601f016020809104026020016040519081016040528092919081815260200182805461029d90610ef2565b80156102e85780601f106102bf576101008083540402835291602001916102e8565b820191905f5260205f20905b8154815290600101906020018083116102cb57829003601f168201915b505050600284015460038501546004860154600587015460069097015495969295919450925060ff8082169161010090041688565b5f8181526020819052604090205481906001600160a01b03166103525760405162461bcd60e51b81526004016100c190610f24565b5f8281526020819052604090205482906001600160a01b031633146103a55760405162461bcd60e51b81526020600482015260096024820152682737ba1037bbb732b960b91b60448201526064016100c1565b60035460ff16156103e55760405162461bcd60e51b815260206004820152600a6024820152695265656e7472616e637960b01b60448201526064016100c1565b6003805460ff191660011781555f8481526020819052604090209081015442101561043e5760405162461bcd60e51b8152602060048201526009602482015268546f6f206561726c7960b81b60448201526064016100c1565b600681015460ff166104855760405162461bcd60e51b815260206004820152601060248201526f11dbd85b081b9bdd081c995858da195960821b60448201526064016100c1565b6006810154610100900460ff16156104d35760405162461bcd60e51b815260206004820152601160248201527020b63932b0b23c903bb4ba34323930bbb760791b60448201526064016100c1565b60058101548061051b5760405162461bcd60e51b81526020600482015260136024820152724e6f7468696e6720746f20776974686472617760681b60448201526064016100c1565b60068201805461ff0019166101001790555f6005830181905582546040516001600160a01b039091169083908381818185875af1925050503d805f811461057d576040519150601f19603f3d011682016040523d82523d5f602084013e610582565b606091505b50509050806105c55760405162461bcd60e51b815260206004820152600f60248201526e151c985b9cd9995c8819985a5b1959608a1b60448201526064016100c1565b82546040518381526001600160a01b039091169087907ff440aec6b52895984d061d622e6edeba6210f7c3e059be920663140c084560d79060200160405180910390a350506003805460ff1916905550505050565b5f8181526020819052604090205481906001600160a01b031661064f5760405162461bcd60e51b81526004016100c190610f24565b60035460ff161561068f5760405162461bcd60e51b815260206004820152600a6024820152695265656e7472616e637960b01b60448201526064016100c1565b6003805460ff191660011781555f838152602081905260409020908101544210156106e85760405162461bcd60e51b8152602060048201526009602482015268546f6f206561726c7960b81b60448201526064016100c1565b600681015460ff16156107325760405162461bcd60e51b815260206004820152601260248201527110d85b5c185a59db881cdd58d8d95959195960721b60448201526064016100c1565b5f8381526001602090815260408083203384529091529020548061078c5760405162461bcd60e51b8152602060048201526011602482015270139bdd1a1a5b99c81d1bc81c99599d5b99607a1b60448201526064016100c1565b5f84815260016020908152604080832033845290915281208190556005830180548392906107bb908490610f5d565b90915550506040515f90339083908381818185875af1925050503d805f81146107ff576040519150601f19603f3d011682016040523d82523d5f602084013e610804565b606091505b50509050806108455760405162461bcd60e51b815260206004820152600d60248201526c1499599d5b990819985a5b1959609a1b60448201526064016100c1565b604051828152339086907f7ca5472b7ea78c2c0141c5a12ee6d170cf4ce8ed06be3d22c8252ddfc7a6a2c49060200160405180910390a350506003805460ff19169055505050565b5f83515f036108cf5760405162461bcd60e51b815260206004820152600e60248201526d151a5d1b19481c995c5d5a5c995960921b60448201526064016100c1565b5f83116109095760405162461bcd60e51b81526020600482015260086024820152670476f616c203e20360c41b60448201526064016100c1565b5f82116109475760405162461bcd60e51b815260206004820152600c60248201526b04475726174696f6e203e20360a41b60448201526064016100c1565b60028054905f61095683610f76565b9091555090505f61096883603c610f8e565b6109729042610fa5565b60408051610100810182523381526020808201898152828401899052606083018590525f6080840181905260a0840181905260c0840181905260e0840181905287815291829052929020815181546001600160a01b0319166001600160a01b0390911617815591519293509160018201906109ed9082611004565b506040828101516002830155606083015160038301556080830151600483015560a0830151600583015560c08301516006909201805460e09094015115156101000261ff00199315159390931661ffff19909416939093179190911790915551339083907fdc26653af5b99b2da33e2ad69ee6600d9aeccc82b034501db4338309615ca23890610a82908990899087906110bf565b60405180910390a3509392505050565b5f8181526020819052604090205481906001600160a01b0316610ac75760405162461bcd60e51b81526004016100c190610f24565b5f3411610aff5760405162461bcd60e51b815260206004820152600660248201526509cde408aa8960d31b60448201526064016100c1565b5f828152602081905260409020600381015442108015610b2957506006810154610100900460ff16155b610b665760405162461bcd60e51b815260206004820152600e60248201526d10d85b5c185a59db88195b99195960921b60448201526064016100c1565b5f83815260016020908152604080832033845290915281208054349290610b8e908490610fa5565b9250508190555034816004015f828254610ba89190610fa5565b9250508190555034816005015f828254610bc29190610fa5565b9091555050600681015460ff16158015610be457508060020154816004015410155b15610c395760068101805460ff19166001179055600481015460405184917f85b3ed4e45559c5f41fb220aa4ac86a440dfc741f219089de694242940aaa09c91610c3091815260200190565b60405180910390a25b60048101546005820154604080513481526020810193909352820152339084907f89cd218df01a1fbda6521620e6be1088957dc2e9ef6162f1b5b148b0b5ff59929060600160405180910390a3505050565b5f8181526020819052604081205482906001600160a01b0316610cc05760405162461bcd60e51b81526004016100c190610f24565b5f83815260208190526040902060038101544210610ce1575f925050610cf5565b428160030154610cf19190610f5d565b9250505b50919050565b5f8181526020819052604081205482906001600160a01b0316610d305760405162461bcd60e51b81526004016100c190610f24565b50505f9081526020819052604090206005015490565b5f60208284031215610d56575f5ffd5b5035919050565b5f81518084528060208401602086015e5f602082860101526020601f19601f83011685010191505092915050565b6001600160a01b0389168152610100602082018190525f90610daf9083018a610d5d565b6040830198909852506060810195909552608085019390935260a0840191909152151560c0830152151560e09091015292915050565b634e487b7160e01b5f52604160045260245ffd5b5f5f5f60608486031215610e0b575f5ffd5b833567ffffffffffffffff811115610e21575f5ffd5b8401601f81018613610e31575f5ffd5b803567ffffffffffffffff811115610e4b57610e4b610de5565b604051601f8201601f19908116603f0116810167ffffffffffffffff81118282101715610e7a57610e7a610de5565b604052818152828201602001881015610e91575f5ffd5b816020840160208301375f602092820183015297908601359650604090950135949350505050565b5f5f60408385031215610eca575f5ffd5b8235915060208301356001600160a01b0381168114610ee7575f5ffd5b809150509250929050565b600181811c90821680610f0657607f821691505b602082108103610cf557634e487b7160e01b5f52602260045260245ffd5b6020808252600b908201526a27379031b0b6b830b4b3b760a91b604082015260600190565b634e487b7160e01b5f52601160045260245ffd5b81810381811115610f7057610f70610f49565b92915050565b5f60018201610f8757610f87610f49565b5060010190565b8082028115828204841417610f7057610f70610f49565b80820180821115610f7057610f70610f49565b601f821115610fff57805f5260205f20601f840160051c81016020851015610fdd5750805b601f840160051c820191505b81811015610ffc575f8155600101610fe9565b50505b505050565b815167ffffffffffffffff81111561101e5761101e610de5565b6110328161102c8454610ef2565b84610fb8565b6020601f821160018114611064575f831561104d5750848201515b5f19600385901b1c1916600184901b178455610ffc565b5f84815260208120601f198516915b828110156110935787850151825560209485019460019092019101611073565b50848210156110b057868401515f19600387901b60f8161c191681555b50505050600190811b01905550565b606081525f6110d16060830186610d5d565b6020830194909452506040015291905056fea26469706673582212203b6cb109697f6e8fc44a90b08d52c6c14ff1fb321d1cb2bf43a9eb5314a3450064736f6c634300081c0033",
  "linkReferences": {},
  "deployedLinkReferences": {},
  "immutableReferences": {},
  "inputSourceName": "project/contracts/MultiCrowdFund.sol",
  "buildInfoId": "solc-0_8_28-8d03cf6afd5029fc2dfa70bef4e1782d851366e9"
}