{
  "_format": "hh3-artifact-1",
  "contractName": "CrowdFund",
  "sourceName": "contracts/CrowdFund.sol",
  "abi": [
    {
      "inputs": [
        {
          "internalType": "uint256",
          "name": "_goal",
          "type": "uint256"
        }
      ],
      "stateMutability": "nonpayable",
      "type": "constructor"
    },
    {
      "inputs": [],
      "name": "donate",
      "outputs": [],
      "stateMutability": "payable",
      "type": "function"
    },
    {
      "inputs": [],
      "name": "goal",
      "outputs": [
        {
          "internalType": "uint256",
          "name": "",
          "type": "uint256"
        }
      ],
      "stateMutability": "view",
      "type": "function"
    },
    {
      "inputs": [],
      "name": "goalReached",
      "outputs": [
        {
          "internalType": "bool",
          "name": "",
          "type": "bool"
        }
      ],
      "stateMutability": "view",
      "type": "function"
    },
    {
      "inputs": [],
      "name": "owner",
      "outputs": [
        {
          "internalType": "address",
          "name": "",
          "type": "address"
        }
      ],
      "stateMutability": "view",
      "type": "function"
    },
    {
      "inputs": [],
      "name": "totalRaised",
      "outputs": [
        {
          "internalType": "uint256",
          "name": "",
          "type": "uint256"
        }
      ],
      "stateMutability": "view",
      "type": "function"
    }
  ],
  "bytecode": "0x6080604052348015600e575f5ffd5b5060405161020c38038061020c833981016040819052602b916043565b5f80546001600160a01b031916331790556001556059565b5f602082840312156052575f5ffd5b5051919050565b6101a6806100665f395ff3fe608060405260043610610049575f3560e01c8063401938831461004d5780637d3d6522146100755780638da5cb5b14610097578063c5c4744c146100cd578063ed88c68e146100e2575b5f5ffd5b348015610058575f5ffd5b5061006260015481565b6040519081526020015b60405180910390f35b348015610080575f5ffd5b50600154600254604051911115815260200161006c565b3480156100a2575f5ffd5b505f546100b5906001600160a01b031681565b6040516001600160a01b03909116815260200161006c565b3480156100d8575f5ffd5b5061006260025481565b6100ea6100ec565b005b5f34116101335760405162461bcd60e51b81526020600482015260116024820152704e6f207a65726f20646f6e6174696f6e7360781b604482015260640160405180910390fd5b3460025f828254610144919061014b565b9091555050565b8082018082111561016a57634e487b7160e01b5f52601160045260245ffd5b9291505056fea26469706673582212206279d82ded0903b752d2b0928802be73d573427df4fdb420f3b32c75731be28764736f6c634300081c0033",
  "linkReferences": {},
  "deployedLinkReferences": {},
  "immutableReferences": {},
  "inputSourceName": "project/contracts/CrowdFund.sol",
  "buildInfoId": "solc-0_8_28-f5d0044fcb582d68bc11ee055daf11f1c28ae331"
}